{
  "_format": "hh-sol-artifact-1",
  "contractName": "CakeCampaign",
  "sourceName": "contracts/Campaigns/CakeCampaign.sol",
  "abi": [
    {
      "inputs": [],
      "stateMutability": "nonpayable",
      "type": "constructor"
    },
    {
      "anonymous": false,
      "inputs": [
        {
          "indexed": false,
          "internalType": "uint8",
          "name": "version",
          "type": "uint8"
        }
      ],
      "name": "Initialized",
      "type": "event"
    },
    {
      "anonymous": false,
      "inputs": [
        {
          "indexed": true,
          "internalType": "bytes32",
          "name": "role",
          "type": "bytes32"
        },
        {
          "indexed": true,
          "internalType": "bytes32",
          "name": "previousAdminRole",
          "type": "bytes32"
        },
        {
          "indexed": true,
          "internalType": "bytes32",
          "name": "newAdminRole",
          "type": "bytes32"
        }
      ],
      "name": "RoleAdminChanged",
      "type": "event"
    },
    {
      "anonymous": false,
      "inputs": [
        {
          "indexed": true,
          "internalType": "bytes32",
          "name": "role",
          "type": "bytes32"
        },
        {
          "indexed": true,
          "internalType": "address",
          "name": "account",
          "type": "address"
        },
        {
          "indexed": true,
          "internalType": "address",
          "name": "sender",
          "type": "address"
        }
      ],
      "name": "RoleGranted",
      "type": "event"
    },
    {
      "anonymous": false,
      "inputs": [
        {
          "indexed": true,
          "internalType": "bytes32",
          "name": "role",
          "type": "bytes32"
        },
        {
          "indexed": true,
          "internalType": "address",
          "name": "account",
          "type": "address"
        },
        {
          "indexed": true,
          "internalType": "address",
          "name": "sender",
          "type": "address"
        }
      ],
      "name": "RoleRevoked",
      "type": "event"
    },
    {
      "anonymous": false,
      "inputs": [
        {
          "indexed": true,
          "internalType": "address",
          "name": "_user",
          "type": "address"
        },
        {
          "indexed": false,
          "internalType": "uint256",
          "name": "_amount",
          "type": "uint256"
        }
      ],
      "name": "Staked",
      "type": "event"
    },
    {
      "inputs": [],
      "name": "ADMIN_ROLE",
      "outputs": [
        {
          "internalType": "bytes32",
          "name": "",
          "type": "bytes32"
        }
      ],
      "stateMutability": "view",
      "type": "function"
    },
    {
      "inputs": [],
      "name": "DEFAULT_ADMIN_ROLE",
      "outputs": [
        {
          "internalType": "bytes32",
          "name": "",
          "type": "bytes32"
        }
      ],
      "stateMutability": "view",
      "type": "function"
    },
    {
      "inputs": [],
      "name": "adminWithdrawCake",
      "outputs": [],
      "stateMutability": "nonpayable",
      "type": "function"
    },
    {
      "inputs": [
        {
          "internalType": "address",
          "name": "account",
          "type": "address"
        }
      ],
      "name": "balanceOf",
      "outputs": [
        {
          "internalType": "uint256",
          "name": "",
          "type": "uint256"
        }
      ],
      "stateMutability": "view",
      "type": "function"
    },
    {
      "inputs": [],
      "name": "cake",
      "outputs": [
        {
          "internalType": "address",
          "name": "",
          "type": "address"
        }
      ],
      "stateMutability": "view",
      "type": "function"
    },
    {
      "inputs": [],
      "name": "cap",
      "outputs": [
        {
          "internalType": "uint256",
          "name": "",
          "type": "uint256"
        }
      ],
      "stateMutability": "view",
      "type": "function"
    },
    {
      "inputs": [],
      "name": "endTime",
      "outputs": [
        {
          "internalType": "uint256",
          "name": "",
          "type": "uint256"
        }
      ],
      "stateMutability": "view",
      "type": "function"
    },
    {
      "inputs": [
        {
          "internalType": "bytes32",
          "name": "role",
          "type": "bytes32"
        }
      ],
      "name": "getRoleAdmin",
      "outputs": [
        {
          "internalType": "bytes32",
          "name": "",
          "type": "bytes32"
        }
      ],
      "stateMutability": "view",
      "type": "function"
    },
    {
      "inputs": [
        {
          "internalType": "bytes32",
          "name": "role",
          "type": "bytes32"
        },
        {
          "internalType": "address",
          "name": "account",
          "type": "address"
        }
      ],
      "name": "grantRole",
      "outputs": [],
      "stateMutability": "nonpayable",
      "type": "function"
    },
    {
      "inputs": [
        {
          "internalType": "bytes32",
          "name": "role",
          "type": "bytes32"
        },
        {
          "internalType": "address",
          "name": "account",
          "type": "address"
        }
      ],
      "name": "hasRole",
      "outputs": [
        {
          "internalType": "bool",
          "name": "",
          "type": "bool"
        }
      ],
      "stateMutability": "view",
      "type": "function"
    },
    {
      "inputs": [
        {
          "internalType": "address",
          "name": "_cake",
          "type": "address"
        },
        {
          "internalType": "uint256",
          "name": "_startTime",
          "type": "uint256"
        },
        {
          "internalType": "uint256",
          "name": "_endTime",
          "type": "uint256"
        },
        {
          "internalType": "uint256",
          "name": "_cap",
          "type": "uint256"
        }
      ],
      "name": "initialize",
      "outputs": [],
      "stateMutability": "nonpayable",
      "type": "function"
    },
    {
      "inputs": [
        {
          "internalType": "bytes32",
          "name": "role",
          "type": "bytes32"
        },
        {
          "internalType": "address",
          "name": "account",
          "type": "address"
        }
      ],
      "name": "renounceRole",
      "outputs": [],
      "stateMutability": "nonpayable",
      "type": "function"
    },
    {
      "inputs": [
        {
          "internalType": "bytes32",
          "name": "role",
          "type": "bytes32"
        },
        {
          "internalType": "address",
          "name": "account",
          "type": "address"
        }
      ],
      "name": "revokeRole",
      "outputs": [],
      "stateMutability": "nonpayable",
      "type": "function"
    },
    {
      "inputs": [
        {
          "internalType": "uint256",
          "name": "_amount",
          "type": "uint256"
        }
      ],
      "name": "stake",
      "outputs": [],
      "stateMutability": "nonpayable",
      "type": "function"
    },
    {
      "inputs": [],
      "name": "startTime",
      "outputs": [
        {
          "internalType": "uint256",
          "name": "",
          "type": "uint256"
        }
      ],
      "stateMutability": "view",
      "type": "function"
    },
    {
      "inputs": [
        {
          "internalType": "bytes4",
          "name": "interfaceId",
          "type": "bytes4"
        }
      ],
      "name": "supportsInterface",
      "outputs": [
        {
          "internalType": "bool",
          "name": "",
          "type": "bool"
        }
      ],
      "stateMutability": "view",
      "type": "function"
    },
    {
      "inputs": [],
      "name": "totalSupply",
      "outputs": [
        {
          "internalType": "uint256",
          "name": "",
          "type": "uint256"
        }
      ],
      "stateMutability": "view",
      "type": "function"
    }
  ],
  "bytecode": "0x608060405234801561001057600080fd5b5061001961001e565b6100de565b600054610100900460ff161561008a5760405162461bcd60e51b815260206004820152602760248201527f496e697469616c697a61626c653a20636f6e747261637420697320696e697469604482015266616c697a696e6760c81b606482015260840160405180910390fd5b60005460ff90811610156100dc576000805460ff191660ff9081179091556040519081527f7f26b83ff96e1f2b6a682f133852f6798a09c465da95921460cefb38474024989060200160405180910390a15b565b611292806100ed6000396000f3fe608060405234801561001057600080fd5b506004361061011b5760003560e01c80634ec81af1116100b257806391d1485411610081578063a694fc3a11610066578063a694fc3a1461026c578063d547741f1461027f578063dce174841461029257600080fd5b806391d148541461022b578063a217fddf1461026457600080fd5b80634ec81af1146101bf57806370a08231146101d257806375b238fc146101fb57806378e979251461022257600080fd5b80632f2ff15d116100ee5780632f2ff15d146101875780633197cbb61461019a578063355274ea146101a357806336568abe146101ac57600080fd5b806301ffc9a714610120578063141ffc651461014857806318160ddd14610152578063248a9ca314610164575b600080fd5b61013361012e366004610fcb565b6102bd565b60405190151581526020015b60405180910390f35b610150610326565b005b609b545b60405190815260200161013f565b610156610172366004610ff5565b60009081526065602052604090206001015490565b61015061019536600461102a565b6103f1565b61015660995481565b610156609a5481565b6101506101ba36600461102a565b61041b565b6101506101cd366004611056565b6104ac565b6101566101e036600461108f565b6001600160a01b03166000908152609c602052604090205490565b6101567fa49807205ce4d355092ef5a8a18f56e8913cf4a201fbe287825b095693c2177581565b61015660985481565b61013361023936600461102a565b60009182526065602090815260408084206001600160a01b0393909316845291905290205460ff1690565b610156600081565b61015061027a366004610ff5565b610647565b61015061028d36600461102a565b61082b565b6097546102a5906001600160a01b031681565b6040516001600160a01b03909116815260200161013f565b60006001600160e01b031982167f7965db0b00000000000000000000000000000000000000000000000000000000148061032057507f01ffc9a7000000000000000000000000000000000000000000000000000000006001600160e01b03198316145b92915050565b7fa49807205ce4d355092ef5a8a18f56e8913cf4a201fbe287825b095693c2177561035081610850565b6097546040517f70a082310000000000000000000000000000000000000000000000000000000081523060048201526103ee9133916001600160a01b03909116906370a0823190602401602060405180830381865afa1580156103b7573d6000803e3d6000fd5b505050506040513d601f19601f820116820180604052508101906103db91906110aa565b6097546001600160a01b0316919061085a565b50565b60008281526065602052604090206001015461040c81610850565b61041683836108eb565b505050565b6001600160a01b038116331461049e5760405162461bcd60e51b815260206004820152602f60248201527f416363657373436f6e74726f6c3a2063616e206f6e6c792072656e6f756e636560448201527f20726f6c657320666f722073656c66000000000000000000000000000000000060648201526084015b60405180910390fd5b6104a8828261098d565b5050565b600054610100900460ff16158080156104cc5750600054600160ff909116105b806104e65750303b1580156104e6575060005460ff166001145b6105585760405162461bcd60e51b815260206004820152602e60248201527f496e697469616c697a61626c653a20636f6e747261637420697320616c72656160448201527f647920696e697469616c697a65640000000000000000000000000000000000006064820152608401610495565b6000805460ff19166001179055801561057b576000805461ff0019166101001790555b610583610a10565b609780547fffffffffffffffffffffffff0000000000000000000000000000000000000000166001600160a01b03871617905560988490556099839055609a8290556105d06000336108eb565b6105fa7fa49807205ce4d355092ef5a8a18f56e8913cf4a201fbe287825b095693c21775336108eb565b8015610640576000805461ff0019169055604051600181527f7f26b83ff96e1f2b6a682f133852f6798a09c465da95921460cefb38474024989060200160405180910390a15b5050505050565b6098544210156106995760405162461bcd60e51b815260206004820152601860248201527f43616d706169676e20686173206e6f74207374617274656400000000000000006044820152606401610495565b6099544211156106eb5760405162461bcd60e51b815260206004820152601260248201527f43616d706169676e2068617320656e64656400000000000000000000000000006044820152606401610495565b6000811161073b5760405162461bcd60e51b815260206004820152600e60248201527f43616e6e6f74207374616b6520300000000000000000000000000000000000006044820152606401610495565b609a5481609b5461074c91906110d9565b111561079a5760405162461bcd60e51b815260206004820152601e60248201527f43616e6e6f74207374616b65206d6f7265207468616e207468652063617000006044820152606401610495565b80609b546107a891906110d9565b609b55336000908152609c60205260409020546107c69082906110d9565b336000818152609c60205260409020919091556097546107f3916001600160a01b03909116903084610a8f565b60405181815233907f9e71bc8eea02a63969f509818f2dafb9254532904319f9dbda79b67bd34a5f3d9060200160405180910390a250565b60008281526065602052604090206001015461084681610850565b610416838361098d565b6103ee8133610ae6565b6040516001600160a01b0383166024820152604481018290526104169084907fa9059cbb00000000000000000000000000000000000000000000000000000000906064015b60408051601f198184030181529190526020810180517bffffffffffffffffffffffffffffffffffffffffffffffffffffffff166001600160e01b031990931692909217909152610b66565b60008281526065602090815260408083206001600160a01b038516845290915290205460ff166104a85760008281526065602090815260408083206001600160a01b03851684529091529020805460ff191660011790556109493390565b6001600160a01b0316816001600160a01b0316837f2f8788117e7eff1d82e926ec794901d17c78024a50270940304540a733656f0d60405160405180910390a45050565b60008281526065602090815260408083206001600160a01b038516845290915290205460ff16156104a85760008281526065602090815260408083206001600160a01b0385168085529252808320805460ff1916905551339285917ff6391f5c32d9c69d2a47ea670b442974b53935d1edc7fd64eb21e047a839171b9190a45050565b600054610100900460ff16610a8d5760405162461bcd60e51b815260206004820152602b60248201527f496e697469616c697a61626c653a20636f6e7472616374206973206e6f74206960448201527f6e697469616c697a696e670000000000000000000000000000000000000000006064820152608401610495565b565b6040516001600160a01b0380851660248301528316604482015260648101829052610ae09085907f23b872dd000000000000000000000000000000000000000000000000000000009060840161089f565b50505050565b60008281526065602090815260408083206001600160a01b038516845290915290205460ff166104a857610b24816001600160a01b03166014610c4b565b610b2f836020610c4b565b604051602001610b40929190611110565b60408051601f198184030181529082905262461bcd60e51b825261049591600401611191565b6000610bbb826040518060400160405280602081526020017f5361666545524332303a206c6f772d6c6576656c2063616c6c206661696c6564815250856001600160a01b0316610e339092919063ffffffff16565b8051909150156104165780806020019051810190610bd991906111c4565b6104165760405162461bcd60e51b815260206004820152602a60248201527f5361666545524332303a204552433230206f7065726174696f6e20646964206e60448201527f6f742073756363656564000000000000000000000000000000000000000000006064820152608401610495565b60606000610c5a8360026111e6565b610c659060026110d9565b67ffffffffffffffff811115610c7d57610c7d6111fd565b6040519080825280601f01601f191660200182016040528015610ca7576020820181803683370190505b5090507f300000000000000000000000000000000000000000000000000000000000000081600081518110610cde57610cde611213565b60200101906001600160f81b031916908160001a9053507f780000000000000000000000000000000000000000000000000000000000000081600181518110610d2957610d29611213565b60200101906001600160f81b031916908160001a9053506000610d4d8460026111e6565b610d589060016110d9565b90505b6001811115610ddd577f303132333435363738396162636465660000000000000000000000000000000085600f1660108110610d9957610d99611213565b1a60f81b828281518110610daf57610daf611213565b60200101906001600160f81b031916908160001a90535060049490941c93610dd681611229565b9050610d5b565b508315610e2c5760405162461bcd60e51b815260206004820181905260248201527f537472696e67733a20686578206c656e67746820696e73756666696369656e746044820152606401610495565b9392505050565b6060610e428484600085610e4a565b949350505050565b606082471015610ec25760405162461bcd60e51b815260206004820152602660248201527f416464726573733a20696e73756666696369656e742062616c616e636520666f60448201527f722063616c6c00000000000000000000000000000000000000000000000000006064820152608401610495565b6001600160a01b0385163b610f195760405162461bcd60e51b815260206004820152601d60248201527f416464726573733a2063616c6c20746f206e6f6e2d636f6e74726163740000006044820152606401610495565b600080866001600160a01b03168587604051610f359190611240565b60006040518083038185875af1925050503d8060008114610f72576040519150601f19603f3d011682016040523d82523d6000602084013e610f77565b606091505b5091509150610f87828286610f92565b979650505050505050565b60608315610fa1575081610e2c565b825115610fb15782518084602001fd5b8160405162461bcd60e51b81526004016104959190611191565b600060208284031215610fdd57600080fd5b81356001600160e01b031981168114610e2c57600080fd5b60006020828403121561100757600080fd5b5035919050565b80356001600160a01b038116811461102557600080fd5b919050565b6000806040838503121561103d57600080fd5b8235915061104d6020840161100e565b90509250929050565b6000806000806080858703121561106c57600080fd5b6110758561100e565b966020860135965060408601359560600135945092505050565b6000602082840312156110a157600080fd5b610e2c8261100e565b6000602082840312156110bc57600080fd5b5051919050565b634e487b7160e01b600052601160045260246000fd5b80820180821115610320576103206110c3565b60005b838110156111075781810151838201526020016110ef565b50506000910152565b7f416363657373436f6e74726f6c3a206163636f756e74200000000000000000008152600083516111488160178501602088016110ec565b7f206973206d697373696e6720726f6c652000000000000000000000000000000060179184019182015283516111858160288401602088016110ec565b01602801949350505050565b60208152600082518060208401526111b08160408501602087016110ec565b601f01601f19169190910160400192915050565b6000602082840312156111d657600080fd5b81518015158114610e2c57600080fd5b8082028115828204841417610320576103206110c3565b634e487b7160e01b600052604160045260246000fd5b634e487b7160e01b600052603260045260246000fd5b600081611238576112386110c3565b506000190190565b600082516112528184602087016110ec565b919091019291505056fea26469706673582212209ee554ac019d813499d1231b4d3218bff63c9623ec11a252b8fbfddaffc0259564736f6c63430008110033",
  "linkReferences": {},
  "deployedLinkReferences": {}
}