{
  "_format": "hh-sol-artifact-1",
  "contractName": "SmartConvertor",
  "sourceName": "contracts/Tools/SmartConvertor.sol",
  "abi": [
    {
      "inputs": [],
      "stateMutability": "nonpayable",
      "type": "constructor"
    },
    {
      "anonymous": false,
      "inputs": [
        {
          "indexed": true,
          "internalType": "address",
          "name": "_user",
          "type": "address"
        },
        {
          "indexed": false,
          "internalType": "uint256",
          "name": "_depositedPendle",
          "type": "uint256"
        },
        {
          "indexed": false,
          "internalType": "uint256",
          "name": "_obtainedFromDexAmount",
          "type": "uint256"
        },
        {
          "indexed": false,
          "internalType": "uint256",
          "name": "_obtainedFromDepositAmount",
          "type": "uint256"
        }
      ],
      "name": "EPendleObtained",
      "type": "event"
    },
    {
      "anonymous": false,
      "inputs": [
        {
          "indexed": false,
          "internalType": "uint8",
          "name": "version",
          "type": "uint8"
        }
      ],
      "name": "Initialized",
      "type": "event"
    },
    {
      "anonymous": false,
      "inputs": [
        {
          "indexed": false,
          "internalType": "address",
          "name": "_maverickPendleEpendlePool",
          "type": "address"
        }
      ],
      "name": "MaverickPendleEpendlePoolChanged",
      "type": "event"
    },
    {
      "anonymous": false,
      "inputs": [
        {
          "indexed": false,
          "internalType": "uint256",
          "name": "_maxSwapAmount",
          "type": "uint256"
        }
      ],
      "name": "MaxSwapAmountChanged",
      "type": "event"
    },
    {
      "anonymous": false,
      "inputs": [
        {
          "indexed": true,
          "internalType": "bytes32",
          "name": "role",
          "type": "bytes32"
        },
        {
          "indexed": true,
          "internalType": "bytes32",
          "name": "previousAdminRole",
          "type": "bytes32"
        },
        {
          "indexed": true,
          "internalType": "bytes32",
          "name": "newAdminRole",
          "type": "bytes32"
        }
      ],
      "name": "RoleAdminChanged",
      "type": "event"
    },
    {
      "anonymous": false,
      "inputs": [
        {
          "indexed": true,
          "internalType": "bytes32",
          "name": "role",
          "type": "bytes32"
        },
        {
          "indexed": true,
          "internalType": "address",
          "name": "account",
          "type": "address"
        },
        {
          "indexed": true,
          "internalType": "address",
          "name": "sender",
          "type": "address"
        }
      ],
      "name": "RoleGranted",
      "type": "event"
    },
    {
      "anonymous": false,
      "inputs": [
        {
          "indexed": true,
          "internalType": "bytes32",
          "name": "role",
          "type": "bytes32"
        },
        {
          "indexed": true,
          "internalType": "address",
          "name": "account",
          "type": "address"
        },
        {
          "indexed": true,
          "internalType": "address",
          "name": "sender",
          "type": "address"
        }
      ],
      "name": "RoleRevoked",
      "type": "event"
    },
    {
      "anonymous": false,
      "inputs": [
        {
          "indexed": false,
          "internalType": "uint256",
          "name": "_swapThreshold",
          "type": "uint256"
        }
      ],
      "name": "SwapThresholdChanged",
      "type": "event"
    },
    {
      "anonymous": false,
      "inputs": [
        {
          "indexed": true,
          "internalType": "address",
          "name": "_tokenIn",
          "type": "address"
        },
        {
          "indexed": true,
          "internalType": "address",
          "name": "_tokenOut",
          "type": "address"
        },
        {
          "indexed": false,
          "internalType": "uint256",
          "name": "_amountIn",
          "type": "uint256"
        },
        {
          "indexed": false,
          "internalType": "uint256",
          "name": "_amountOutMinimum",
          "type": "uint256"
        },
        {
          "indexed": true,
          "internalType": "address",
          "name": "_receiver",
          "type": "address"
        },
        {
          "indexed": false,
          "internalType": "uint256",
          "name": "_amountOut",
          "type": "uint256"
        }
      ],
      "name": "TokenSwapped",
      "type": "event"
    },
    {
      "inputs": [],
      "name": "ADMIN_ROLE",
      "outputs": [
        {
          "internalType": "bytes32",
          "name": "",
          "type": "bytes32"
        }
      ],
      "stateMutability": "view",
      "type": "function"
    },
    {
      "inputs": [],
      "name": "DEFAULT_ADMIN_ROLE",
      "outputs": [
        {
          "internalType": "bytes32",
          "name": "",
          "type": "bytes32"
        }
      ],
      "stateMutability": "view",
      "type": "function"
    },
    {
      "inputs": [
        {
          "internalType": "address",
          "name": "_maverickPendleEpendlePool",
          "type": "address"
        }
      ],
      "name": "changeMaverickPendleEpendlePool",
      "outputs": [],
      "stateMutability": "nonpayable",
      "type": "function"
    },
    {
      "inputs": [
        {
          "internalType": "uint256",
          "name": "_maxSwapAmount",
          "type": "uint256"
        }
      ],
      "name": "changeMaxSwapAmount",
      "outputs": [],
      "stateMutability": "nonpayable",
      "type": "function"
    },
    {
      "inputs": [
        {
          "internalType": "uint256",
          "name": "_swapThreshold",
          "type": "uint256"
        }
      ],
      "name": "changeSwapThreshold",
      "outputs": [],
      "stateMutability": "nonpayable",
      "type": "function"
    },
    {
      "inputs": [
        {
          "internalType": "uint256",
          "name": "_amount",
          "type": "uint256"
        }
      ],
      "name": "deposit",
      "outputs": [
        {
          "internalType": "uint256",
          "name": "obtainedAmount",
          "type": "uint256"
        }
      ],
      "stateMutability": "nonpayable",
      "type": "function"
    },
    {
      "inputs": [
        {
          "internalType": "uint256",
          "name": "_amount",
          "type": "uint256"
        },
        {
          "internalType": "address",
          "name": "_for",
          "type": "address"
        }
      ],
      "name": "depositFor",
      "outputs": [
        {
          "internalType": "uint256",
          "name": "obtainedAmount",
          "type": "uint256"
        }
      ],
      "stateMutability": "nonpayable",
      "type": "function"
    },
    {
      "inputs": [],
      "name": "ePendle",
      "outputs": [
        {
          "internalType": "address",
          "name": "",
          "type": "address"
        }
      ],
      "stateMutability": "view",
      "type": "function"
    },
    {
      "inputs": [
        {
          "internalType": "uint256",
          "name": "_amount",
          "type": "uint256"
        }
      ],
      "name": "estimateTotalConversion",
      "outputs": [
        {
          "internalType": "uint256",
          "name": "amountOut",
          "type": "uint256"
        }
      ],
      "stateMutability": "nonpayable",
      "type": "function"
    },
    {
      "inputs": [
        {
          "internalType": "bytes32",
          "name": "role",
          "type": "bytes32"
        }
      ],
      "name": "getRoleAdmin",
      "outputs": [
        {
          "internalType": "bytes32",
          "name": "",
          "type": "bytes32"
        }
      ],
      "stateMutability": "view",
      "type": "function"
    },
    {
      "inputs": [
        {
          "internalType": "bytes32",
          "name": "role",
          "type": "bytes32"
        },
        {
          "internalType": "address",
          "name": "account",
          "type": "address"
        }
      ],
      "name": "grantRole",
      "outputs": [],
      "stateMutability": "nonpayable",
      "type": "function"
    },
    {
      "inputs": [
        {
          "internalType": "bytes32",
          "name": "role",
          "type": "bytes32"
        },
        {
          "internalType": "address",
          "name": "account",
          "type": "address"
        }
      ],
      "name": "hasRole",
      "outputs": [
        {
          "internalType": "bool",
          "name": "",
          "type": "bool"
        }
      ],
      "stateMutability": "view",
      "type": "function"
    },
    {
      "inputs": [],
      "name": "initialize",
      "outputs": [],
      "stateMutability": "nonpayable",
      "type": "function"
    },
    {
      "inputs": [],
      "name": "maverickPendleEpendlePool",
      "outputs": [
        {
          "internalType": "contract IPool",
          "name": "",
          "type": "address"
        }
      ],
      "stateMutability": "view",
      "type": "function"
    },
    {
      "inputs": [],
      "name": "maverickPoolInformation",
      "outputs": [
        {
          "internalType": "contract IPoolInformation",
          "name": "",
          "type": "address"
        }
      ],
      "stateMutability": "view",
      "type": "function"
    },
    {
      "inputs": [],
      "name": "maxSwapAmount",
      "outputs": [
        {
          "internalType": "uint256",
          "name": "",
          "type": "uint256"
        }
      ],
      "stateMutability": "view",
      "type": "function"
    },
    {
      "inputs": [],
      "name": "pendle",
      "outputs": [
        {
          "internalType": "address",
          "name": "",
          "type": "address"
        }
      ],
      "stateMutability": "view",
      "type": "function"
    },
    {
      "inputs": [],
      "name": "pendleDepositor",
      "outputs": [
        {
          "internalType": "contract IPendleDepositor",
          "name": "",
          "type": "address"
        }
      ],
      "stateMutability": "view",
      "type": "function"
    },
    {
      "inputs": [
        {
          "internalType": "address",
          "name": "_tokenIn",
          "type": "address"
        },
        {
          "internalType": "uint256",
          "name": "_amount",
          "type": "uint256"
        }
      ],
      "name": "previewAmountOut",
      "outputs": [
        {
          "internalType": "uint256",
          "name": "",
          "type": "uint256"
        }
      ],
      "stateMutability": "view",
      "type": "function"
    },
    {
      "inputs": [
        {
          "internalType": "bytes32",
          "name": "role",
          "type": "bytes32"
        },
        {
          "internalType": "address",
          "name": "account",
          "type": "address"
        }
      ],
      "name": "renounceRole",
      "outputs": [],
      "stateMutability": "nonpayable",
      "type": "function"
    },
    {
      "inputs": [
        {
          "internalType": "bytes32",
          "name": "role",
          "type": "bytes32"
        },
        {
          "internalType": "address",
          "name": "account",
          "type": "address"
        }
      ],
      "name": "revokeRole",
      "outputs": [],
      "stateMutability": "nonpayable",
      "type": "function"
    },
    {
      "inputs": [],
      "name": "router",
      "outputs": [
        {
          "internalType": "contract IMaverickRouter",
          "name": "",
          "type": "address"
        }
      ],
      "stateMutability": "view",
      "type": "function"
    },
    {
      "inputs": [
        {
          "internalType": "address",
          "name": "_pendle",
          "type": "address"
        },
        {
          "internalType": "address",
          "name": "_ePendle",
          "type": "address"
        },
        {
          "internalType": "address",
          "name": "_router",
          "type": "address"
        },
        {
          "internalType": "address",
          "name": "_maverickPoolInformation",
          "type": "address"
        },
        {
          "internalType": "address",
          "name": "_maverickPendleEpendlePool",
          "type": "address"
        },
        {
          "internalType": "address",
          "name": "_pendleDepositor",
          "type": "address"
        }
      ],
      "name": "setParams",
      "outputs": [],
      "stateMutability": "nonpayable",
      "type": "function"
    },
    {
      "inputs": [
        {
          "internalType": "bytes4",
          "name": "interfaceId",
          "type": "bytes4"
        }
      ],
      "name": "supportsInterface",
      "outputs": [
        {
          "internalType": "bool",
          "name": "",
          "type": "bool"
        }
      ],
      "stateMutability": "view",
      "type": "function"
    },
    {
      "inputs": [
        {
          "internalType": "uint256",
          "name": "_amount",
          "type": "uint256"
        },
        {
          "internalType": "uint256",
          "name": "_amountOutMinimum",
          "type": "uint256"
        },
        {
          "internalType": "address",
          "name": "_receiver",
          "type": "address"
        }
      ],
      "name": "swapEPendleForPendle",
      "outputs": [
        {
          "internalType": "uint256",
          "name": "",
          "type": "uint256"
        }
      ],
      "stateMutability": "nonpayable",
      "type": "function"
    },
    {
      "inputs": [],
      "name": "swapThreshold",
      "outputs": [
        {
          "internalType": "uint256",
          "name": "",
          "type": "uint256"
        }
      ],
      "stateMutability": "view",
      "type": "function"
    }
  ],
  "bytecode": "0x608060405234801561001057600080fd5b5061001961001e565b6100de565b600054610100900460ff161561008a5760405162461bcd60e51b815260206004820152602760248201527f496e697469616c697a61626c653a20636f6e747261637420697320696e697469604482015266616c697a696e6760c81b606482015260840160405180910390fd5b60005460ff90811610156100dc576000805460ff191660ff9081179091556040519081527f7f26b83ff96e1f2b6a682f133852f6798a09c465da95921460cefb38474024989060200160405180910390a15b565b61203a80620000ee6000396000f3fe608060405234801561001057600080fd5b50600436106101ae5760003560e01c806389f425e7116100ee578063bbb9541511610097578063d547741f11610071578063d547741f146103b2578063df39a163146103c5578063f887ea40146103d8578063ff52e6fd146103eb57600080fd5b8063bbb9541514610383578063c653cf0a14610396578063cce987d4146103a957600080fd5b8063a2c530da116100c8578063a2c530da1461034a578063b6b55f251461035d578063b86a90111461037057600080fd5b806389f425e7146102f657806391d1485414610309578063a217fddf1461034257600080fd5b806334e66b381161015b5780635a0745f2116101355780635a0745f2146102a15780635ebb8dee146102b457806375b238fc146102c75780638129fc1c146102ee57600080fd5b806334e66b381461026857806336568abe1461027b57806336efd16f1461028e57600080fd5b8063248a9ca31161018c578063248a9ca31461021d5780632b2e8a83146102405780632f2ff15d1461025357600080fd5b806301ffc9a7146101b35780630445b667146101db5780631d2e3825146101f2575b600080fd5b6101c66101c1366004611c0f565b6103fe565b60405190151581526020015b60405180910390f35b6101e4609d5481565b6040519081526020016101d2565b609c54610205906001600160a01b031681565b6040516001600160a01b0390911681526020016101d2565b6101e461022b366004611c39565b60009081526065602052604090206001015490565b6101e461024e366004611c67565b610467565b610266610261366004611ca0565b6104ab565b005b6101e4610276366004611c39565b6104d5565b610266610289366004611ca0565b610500565b6101e461029c366004611ca0565b610591565b609954610205906001600160a01b031681565b6102666102c2366004611cd0565b61059d565b6101e47fa49807205ce4d355092ef5a8a18f56e8913cf4a201fbe287825b095693c2177581565b610266610904565b610266610304366004611c39565b610a59565b6101c6610317366004611ca0565b60009182526065602090815260408084206001600160a01b0393909316845291905290205460ff1690565b6101e4600081565b609854610205906001600160a01b031681565b6101e461036b366004611c39565b610b37565b61026661037e366004611d52565b610b43565b610266610391366004611c39565b610bff565b6101e46103a4366004611d6f565b610c5e565b6101e4609e5481565b6102666103c0366004611ca0565b610da1565b609754610205906001600160a01b031681565b609a54610205906001600160a01b031681565b609b54610205906001600160a01b031681565b60006001600160e01b031982167f7965db0b00000000000000000000000000000000000000000000000000000000148061046157507f01ffc9a7000000000000000000000000000000000000000000000000000000006001600160e01b03198316145b92915050565b609954600090610482906001600160a01b0316333087610dc6565b6099546098546104a1916001600160a01b039081169116868686610e65565b90505b9392505050565b6000828152606560205260409020600101546104c681610ff9565b6104d08383611003565b505050565b6000806104e1836110a5565b90506104ed8184611db1565b6104f6826110e4565b6104a49190611dc4565b6001600160a01b03811633146105835760405162461bcd60e51b815260206004820152602f60248201527f416363657373436f6e74726f6c3a2063616e206f6e6c792072656e6f756e636560448201527f20726f6c657320666f722073656c66000000000000000000000000000000000060648201526084015b60405180910390fd5b61058d82826111b0565b5050565b60006104a48383611233565b60006105a881610ff9565b6098546001600160a01b0316156106015760405162461bcd60e51b815260206004820152600c60248201527f616c726561647920736574210000000000000000000000000000000000000000604482015260640161057a565b6001600160a01b0387166106575760405162461bcd60e51b815260206004820152601060248201527f696e76616c6964205f70656e646c652100000000000000000000000000000000604482015260640161057a565b6001600160a01b0386166106ad5760405162461bcd60e51b815260206004820152601160248201527f696e76616c6964205f6550656e646c6521000000000000000000000000000000604482015260640161057a565b6001600160a01b0385166107035760405162461bcd60e51b815260206004820152601060248201527f696e76616c6964205f726f757465722100000000000000000000000000000000604482015260640161057a565b6001600160a01b03841661077f5760405162461bcd60e51b815260206004820152602160248201527f696e76616c6964205f6d6176657269636b506f6f6c496e666f726d6174696f6e60448201527f2100000000000000000000000000000000000000000000000000000000000000606482015260840161057a565b6001600160a01b0383166107e15760405162461bcd60e51b815260206004820152602360248201527f696e76616c6964205f6d6176657269636b50656e646c654570656e646c65506f6044820152626f6c2160e81b606482015260840161057a565b6001600160a01b0382166108375760405162461bcd60e51b815260206004820152601960248201527f696e76616c6964205f70656e646c654465706f7369746f722100000000000000604482015260640161057a565b6098805473ffffffffffffffffffffffffffffffffffffffff199081166001600160a01b038a811691909117909255609980548216898416908117909155609a80548316898516179055609b80548316878516179055609780548316888516179055609c80549092169285169290921790556108b6908660001961138f565b6098546108cf906001600160a01b03168660001961138f565b6098546108e8906001600160a01b03168360001961138f565b50506069609d555050690a968163f0a57b400000609e55505050565b600054610100900460ff16158080156109245750600054600160ff909116105b8061093e5750303b15801561093e575060005460ff166001145b6109b05760405162461bcd60e51b815260206004820152602e60248201527f496e697469616c697a61626c653a20636f6e747261637420697320616c72656160448201527f647920696e697469616c697a6564000000000000000000000000000000000000606482015260840161057a565b6000805460ff1916600117905580156109d3576000805461ff0019166101001790555b6109db6114dd565b6109e6600033611003565b610a107fa49807205ce4d355092ef5a8a18f56e8913cf4a201fbe287825b095693c2177533611003565b8015610a56576000805461ff0019169055604051600181527f7f26b83ff96e1f2b6a682f133852f6798a09c465da95921460cefb38474024989060200160405180910390a15b50565b7fa49807205ce4d355092ef5a8a18f56e8913cf4a201fbe287825b095693c21775610a8381610ff9565b6064821015610afa5760405162461bcd60e51b815260206004820152602960248201527f5f737761705468726573686f6c642073686f756c64206265206772656174657260448201527f207468616e203130300000000000000000000000000000000000000000000000606482015260840161057a565b609d8290556040518281527f9ff241d1f1e0c30788ac08c45391c423cc5ef3e67f66a46b95a9a8f394759f36906020015b60405180910390a15050565b60006104618233611233565b7fa49807205ce4d355092ef5a8a18f56e8913cf4a201fbe287825b095693c21775610b6d81610ff9565b6001600160a01b038216610bcf5760405162461bcd60e51b815260206004820152602360248201527f696e76616c6964205f6d6176657269636b50656e646c654570656e646c65506f6044820152626f6c2160e81b606482015260840161057a565b50609b805473ffffffffffffffffffffffffffffffffffffffff19166001600160a01b0392909216919091179055565b7fa49807205ce4d355092ef5a8a18f56e8913cf4a201fbe287825b095693c21775610c2981610ff9565b609e8290556040518281527f7a8fd4eb777a8a23e4960855599f6b597db3ea92d3cc27b7de953975aa37dbaf90602001610b2b565b6098546000906001600160a01b0384811691161480610c8a57506099546001600160a01b038481169116145b610cd65760405162461bcd60e51b815260206004820152601160248201527f696e76616c6964205f746f6b656e496e21000000000000000000000000000000604482015260640161057a565b81600003610ce657506000610461565b6000610cf061155c565b6098549091506001600160a01b0390811690851603610d7c57609d54600090670de0b6b3a7640000610d23846064611dd7565b610d2d9190611dee565b1115610d4257610d3f84609e5461163d565b90505b610d4c8185611db1565b670de0b6b3a7640000610d5f8484611dd7565b610d699190611dee565b610d739190611dc4565b92505050610461565b80610d8f84670de0b6b3a7640000611dd7565b610d999190611dee565b915050610461565b600082815260656020526040902060010154610dbc81610ff9565b6104d083836111b0565b6040516001600160a01b0380851660248301528316604482015260648101829052610e5f9085907f23b872dd00000000000000000000000000000000000000000000000000000000906084015b60408051601f198184030181529190526020810180517bffffffffffffffffffffffffffffffffffffffffffffffffffffffff166001600160e01b031990931692909217909152611653565b50505050565b6000610ea26040518060a001604052806060815260200160006001600160a01b031681526020016000815260200160008152602001600081525090565b609b546040516bffffffffffffffffffffffff1960608a811b8216602084015292831b811660348301529188901b9091166048820152605c0160408051601f198184030181529181529082526001600160a01b03808516602084015242838301526060830187905260808301869052609a5491517fc04b8d590000000000000000000000000000000000000000000000000000000081526000929091169063c04b8d5990610f54908590600401611e60565b6020604051808303816000875af1158015610f73573d6000803e3d6000fd5b505050506040513d601f19601f82011682018060405250810190610f979190611eb9565b60408051888152602081018890529081018290529091506001600160a01b0380861691898216918b16907f90da32b3e9098f634db67d4adf029f1297dcb7f283d2d7abd9c175172dd2bd509060600160405180910390a4979650505050505050565b610a568133611738565b60008281526065602090815260408083206001600160a01b038516845290915290205460ff1661058d5760008281526065602090815260408083206001600160a01b03851684529091529020805460ff191660011790556110613390565b6001600160a01b0316816001600160a01b0316837f2f8788117e7eff1d82e926ec794901d17c78024a50270940304540a733656f0d60405160405180910390a45050565b60006064609d54836110b79190611dd7565b6110c19190611dee565b6110ca836110e4565b11156110dc5761046182609e5461163d565b506000919050565b6000816000036110f657506000919050565b609754609b546001600160a01b0391821691632764cd0b9116846111186117b8565b6040516001600160e01b031960e086901b1681526001600160a01b0390931660048401526fffffffffffffffffffffffffffffffff909116602483015215156044820152600060648201819052608482015260a4016020604051808303816000875af115801561118c573d6000803e3d6000fd5b505050506040513d601f19601f820116820180604052508101906104619190611eb9565b60008281526065602090815260408083206001600160a01b038516845290915290205460ff161561058d5760008281526065602090815260408083206001600160a01b0385168085529252808320805460ff1916905551339285917ff6391f5c32d9c69d2a47ea670b442974b53935d1edc7fd64eb21e047a839171b9190a45050565b609854600090819081908190611254906001600160a01b0316333089610dc6565b61125d866110a5565b92506112698387611db1565b9150821561129357609854609954611290916001600160a01b039081169116858089610e65565b90505b811561132f57609c546040517f9a40832100000000000000000000000000000000000000000000000000000000815260048101849052600060248201526001600160a01b0390911690639a40832190604401600060405180830381600087803b1580156112ff57600080fd5b505af1158015611313573d6000803e3d6000fd5b505060995461132f92506001600160a01b031690508684611855565b60408051878152602081018390529081018390526001600160a01b038616907f4b7c6b9a3af68c1e0f019838cc648243ecdc644f9638697e6f8c2f5c6c0268539060600160405180910390a26113858282611dc4565b9695505050505050565b80158061142257506040517fdd62ed3e0000000000000000000000000000000000000000000000000000000081523060048201526001600160a01b03838116602483015284169063dd62ed3e90604401602060405180830381865afa1580156113fc573d6000803e3d6000fd5b505050506040513d601f19601f820116820180604052508101906114209190611eb9565b155b6114945760405162461bcd60e51b815260206004820152603660248201527f5361666545524332303a20617070726f76652066726f6d206e6f6e2d7a65726f60448201527f20746f206e6f6e2d7a65726f20616c6c6f77616e636500000000000000000000606482015260840161057a565b6040516001600160a01b0383166024820152604481018290526104d09084907f095ea7b30000000000000000000000000000000000000000000000000000000090606401610e13565b600054610100900460ff1661155a5760405162461bcd60e51b815260206004820152602b60248201527f496e697469616c697a61626c653a20636f6e7472616374206973206e6f74206960448201527f6e697469616c697a696e67000000000000000000000000000000000000000000606482015260840161057a565b565b609754609b546040517f91c0914e0000000000000000000000000000000000000000000000000000000081526001600160a01b039182166004820152600092839216906391c0914e90602401602060405180830381865afa1580156115c5573d6000803e3d6000fd5b505050506040513d601f19601f820116820180604052508101906115e99190611eb9565b90506115f36117b8565b1561162a578061161a81760a70c3c40a64e6c51999090b65f67d9240000000000000611dee565b6116249190611dee565b91505090565b670de0b6b3a764000061161a8280611dd7565b600081831061164c57816104a4565b5090919050565b60006116a8826040518060400160405280602081526020017f5361666545524332303a206c6f772d6c6576656c2063616c6c206661696c6564815250856001600160a01b031661189e9092919063ffffffff16565b8051909150156104d057808060200190518101906116c69190611ed2565b6104d05760405162461bcd60e51b815260206004820152602a60248201527f5361666545524332303a204552433230206f7065726174696f6e20646964206e60448201527f6f74207375636365656400000000000000000000000000000000000000000000606482015260840161057a565b60008281526065602090815260408083206001600160a01b038516845290915290205460ff1661058d57611776816001600160a01b031660146118ad565b6117818360206118ad565b604051602001611792929190611ef4565b60408051601f198184030181529082905262461bcd60e51b825261057a91600401611f75565b609854609b54604080517f0fc63d1000000000000000000000000000000000000000000000000000000000815290516000936001600160a01b03908116931691630fc63d109160048083019260209291908290030181865afa158015611822573d6000803e3d6000fd5b505050506040513d601f19601f820116820180604052508101906118469190611f88565b6001600160a01b031614905090565b6040516001600160a01b0383166024820152604481018290526104d09084907fa9059cbb0000000000000000000000000000000000000000000000000000000090606401610e13565b60606104a18484600085611a8e565b606060006118bc836002611dd7565b6118c7906002611dc4565b67ffffffffffffffff8111156118df576118df611fa5565b6040519080825280601f01601f191660200182016040528015611909576020820181803683370190505b5090507f30000000000000000000000000000000000000000000000000000000000000008160008151811061194057611940611fbb565b60200101906001600160f81b031916908160001a9053507f78000000000000000000000000000000000000000000000000000000000000008160018151811061198b5761198b611fbb565b60200101906001600160f81b031916908160001a90535060006119af846002611dd7565b6119ba906001611dc4565b90505b6001811115611a3f577f303132333435363738396162636465660000000000000000000000000000000085600f16601081106119fb576119fb611fbb565b1a60f81b828281518110611a1157611a11611fbb565b60200101906001600160f81b031916908160001a90535060049490941c93611a3881611fd1565b90506119bd565b5083156104a45760405162461bcd60e51b815260206004820181905260248201527f537472696e67733a20686578206c656e67746820696e73756666696369656e74604482015260640161057a565b606082471015611b065760405162461bcd60e51b815260206004820152602660248201527f416464726573733a20696e73756666696369656e742062616c616e636520666f60448201527f722063616c6c0000000000000000000000000000000000000000000000000000606482015260840161057a565b6001600160a01b0385163b611b5d5760405162461bcd60e51b815260206004820152601d60248201527f416464726573733a2063616c6c20746f206e6f6e2d636f6e7472616374000000604482015260640161057a565b600080866001600160a01b03168587604051611b799190611fe8565b60006040518083038185875af1925050503d8060008114611bb6576040519150601f19603f3d011682016040523d82523d6000602084013e611bbb565b606091505b5091509150611bcb828286611bd6565b979650505050505050565b60608315611be55750816104a4565b825115611bf55782518084602001fd5b8160405162461bcd60e51b815260040161057a9190611f75565b600060208284031215611c2157600080fd5b81356001600160e01b0319811681146104a457600080fd5b600060208284031215611c4b57600080fd5b5035919050565b6001600160a01b0381168114610a5657600080fd5b600080600060608486031215611c7c57600080fd5b83359250602084013591506040840135611c9581611c52565b809150509250925092565b60008060408385031215611cb357600080fd5b823591506020830135611cc581611c52565b809150509250929050565b60008060008060008060c08789031215611ce957600080fd5b8635611cf481611c52565b95506020870135611d0481611c52565b94506040870135611d1481611c52565b93506060870135611d2481611c52565b92506080870135611d3481611c52565b915060a0870135611d4481611c52565b809150509295509295509295565b600060208284031215611d6457600080fd5b81356104a481611c52565b60008060408385031215611d8257600080fd5b8235611d8d81611c52565b946020939093013593505050565b634e487b7160e01b600052601160045260246000fd5b8181038181111561046157610461611d9b565b8082018082111561046157610461611d9b565b808202811582820484141761046157610461611d9b565b600082611e0b57634e487b7160e01b600052601260045260246000fd5b500490565b60005b83811015611e2b578181015183820152602001611e13565b50506000910152565b60008151808452611e4c816020860160208601611e10565b601f01601f19169290920160200192915050565b602081526000825160a06020840152611e7c60c0840182611e34565b90506001600160a01b0360208501511660408401526040840151606084015260608401516080840152608084015160a08401528091505092915050565b600060208284031215611ecb57600080fd5b5051919050565b600060208284031215611ee457600080fd5b815180151581146104a457600080fd5b7f416363657373436f6e74726f6c3a206163636f756e7420000000000000000000815260008351611f2c816017850160208801611e10565b7f206973206d697373696e6720726f6c65200000000000000000000000000000006017918401918201528351611f69816028840160208801611e10565b01602801949350505050565b6020815260006104a46020830184611e34565b600060208284031215611f9a57600080fd5b81516104a481611c52565b634e487b7160e01b600052604160045260246000fd5b634e487b7160e01b600052603260045260246000fd5b600081611fe057611fe0611d9b565b506000190190565b60008251611ffa818460208701611e10565b919091019291505056fea2646970667358221220b245da09065b69ab389072392dbc49129b73074e9ed6821bb486d345d7336c7164736f6c63430008110033",
  "linkReferences": {},
  "deployedLinkReferences": {}
}